:10000000C6EF06F00000000000EF00F00000000066
:0A0010000000000000000000F3D71C
:06001C00000000001200CC
:100022000F0E0C6E470E0D6E0D2EFED70C2EFCD74A
:06003200000000001200B6
:0A003800210E0D6E0D2EFED71200F2
:100042000B840BAE2CEF00F0010E036E026A016A04
:0A005200006A0A360232FF0E1200A7
:08005C000AAE029E000E120024
:0E006400026A016A006A086A036A000E12004E
:10007200000177BF02D0819E01D0818E77BD02D070
:10008200819C01D0818C77BB02D0819A01D0818A78
:1000920077B902D0819801D0818851B002D0818491
:1000A20001D081948186B9DF819677B702D0819E93
:1000B20001D0818E77B502D0819C01D0818C77B33B
:1000C20002D0819A01D0818A77B102D0819801D081
:1000D200818851B002D0818401D0819481869DDFD4
:0E00E200819651A002D09CDF01D0A5DF120054
:1000F0000B820BAE82EF00F00368026801680068B3
:080100000A360232FF0E120064
:080108000B6A0B86FF0E1200CA
:10011000086A096A000E076203640DEF01F00250DD
:1001200006180A6E075003267E0ED8A09EEF00F038
:10013000035ED8B011EF01F0A2EF00F0035ED8A08B
:1001400015EF01F0028E068E02C00EF001C00BF01A
:1001500000C00DF000500402F4CF0CF00150050275
:10016000F4CF00F0F3CF08F00402F3500C26F45063
:100170000822000E00220D500502F3500C26F45008
:100180000822000E002202500402F3500826F45008
:10019000002202500502016A000E0122F3500026DF
:1001A000F45001220D500602F3500826F4500022AC
:1001B000026A000E012202220B500602F3500026B2
:1001C000F4500122000E02220E500602F3500126C6
:1001D000F450022202BEF5EF00F008360036013678
:1001E00002360306D8B415EF01F008EF01F0D8800D
:1001F000800E08640030000E002201220222D8A0E6
:1002000008EF01F0023201320032034A11EF01F02F
:100210000AAE029E000E17EF01F0010E23DF17EF6A
:1002200001F0020E65DF17EF01F0040E0ADF120085
:0C023000519073C077F01DDF5180120068
:10023C0073C004F074C005F004C002F005C003F0F4
:10024C00044A052A75C000F076C001F00001754B18
:10025C00762B00C0E9FF01C0EAFF02C0E1FF03C03A
:10026C00E2FFEECFE6FF02C0E9FF03C0EAFFEE5269
:0E027C0001E0E2D773C000F074C001F0120080
:10028A000A6A0350D8A40A800750D8A40A820A50DE
:10029A00D8B4A8EF01F0030AD8B461EF01F00AB0AC
:1002AA005CEF01F006AEA6EF01F0A4EF01F002AE9A
:1002BA00A4EF01F0A6EF01F00250800B0A6E029E35
:1002CA000650800B069E0A18D8B472EF01F00A5045
:1002DA00D8B4A4EF01F0A6EF01F00750035CD8B43C
:1002EA007CEF01F0D8A098EF01F09EEF01F00650E4
:1002FA00025CD8B486EF01F0D8A098EF01F09EEF27
:10030A0001F00550015CD8B490EF01F0D8A098EF45
:10031A0001F09EEF01F00450005CD8B4A8EF01F0A0
:10032A00D8B09EEF01F00A52D8B4A6EF01F0A4EFBC
:10033A0001F00A52D8B4A4EF01F0A6EF01F0D88078
:0E034A001200D8901200D880D8841200120041
:100358000D6A086A0050D8B4000C04180A6E0ABE68
:100368000D1E0B6A04AE02D0041E042A00AE02D091
:10037800001E002A005004100A6E0ABE1FD0045046
:10038800085E003600340836045008260036060E8B
:100398000C6E00340836045000B0085E00A0082631
:1003A80000360C2EF6D700A008260BB015D00DAEDF
:1003B800000C001E002A081E082A000C04AE09D0F2
:1003C80000BE04D00050086E006AF1D7006A002A07
:1003D800000C001E0B2AD3D7082A0450085CD8A4A6
:0E03E800E6D7086A002A00AEE2D7FF0C12002A
:1003F6000134083609360450085E0550D8A0053C7D
:10040600095E003601360F0E0C6E013408360936C9
:10041600045000A006D0085E0550D8A0053C095E31
:1004260005D008260550D8B0053C09260036013609
:100436000C2EEBD700B006D0045008260550D8B0D5
:08044600053C0926000012002C
:0C044E000E0E0D6E0D2EFED700001200E9
:10045A000C6A0E6A0250D8A446EF02F001C002F0FC
:10046A0000C001F0006A0E860250D8A446EF02F0DE
:10047A0001C002F0016A0E960E880250D8B458EFF5
:10048A0002F00E50035ED8A4D8A05DEF02F0D89017
:10049A0002BE62EF02F0003601360236032E4DEF3D
:1004AA0002F05DEF02F0010E0C6ED7DD65EF02F08F
:1004BA00020E0C6EC1DD65EF02F0040E0C6EC9DD92
:0204CA0012001E
:1004CC00FF0E0001616FFF0E626FFF0E636FFF0E78
:1004DC00646FC26A481C006E0050C1160F0EC01229
:0604EC00C08EC280120068
:1004F200939693949398939A939C939E81968194C6
:10050200819E819C819A81988BDD8ADD89DD818A39
:100512008188818682DD819683DD81867EDD81967A
:100522007FDD81867ADD81967BDD8198818675DD2E
:10053200819676DD818671DD8196819A818E8186B2
:100542006CDD81966DDD819E8188818666DD819676
:100552008198818662DD819663DD81865EDD81968A
:10056200818881865ADD81965BDD8198818655DDA1
:100572008196818E818C818A818881864EDD8196E9
:060582004FDD5180120064
:1005880010D0800E0001656F1AD0C00E656F17D0AD
:10059800940E656F14D0D40E656F11D0800E656F00
:1005A8000ED000016551010AECE06551020AEDE048
:1005B8006551030AEDE06551040AEDE0EFD76605E1
:1005C800006E6551002600C065F000C077F04DDD73
:1005D8005190696B69516725E96E000E6821EA6ED2
:1005E800EE520BE069516725E96E000E6821EA6E4C
:0E05F800EECF73F019DE692BEDD751801200A3
:1006060010D0800E0001656F1AD0C00E656F17D02E
:10061600940E656F14D0D40E656F11D0800E656F81
:100626000ED000016551010AECE06551020AEDE0C9
:100636006551030AEDE06551040AEDE0EFD7660562
:10064600006E6551002600C065F0518000C077F04D
:0E0656000DDD519067C077F009DD5180120074
:100664000900F5CFE6FF0006FBE10106F9E11200FF
:080674002BDF8E0EC16E120097
:10067C000001716B726B65C06DF066C06EF067C087
:10068C006FF068C070F07051FF0A08E16F51FF0AFB
:10069C0005E16E51FF0A02E16D51FF0A0CE169C0E0
:1006AC0073F06AC074F0360E756F000E766FC0DD95
:1006BC00030E006EE9D1010E6B6F6FAF0ED0800E82
:1006CC006F19006E00C06FF06B2B69C0E1FF6AC040
:1006DC00E2FF2D0EE66E694B6A2B000E006E701950
:1006EC0008E100506F1905E100506E1902E16D51DF
:1006FC00000A0BE169C073F06AC074F0340E756FB8
:10070C00000E766F95DD006ABFD17051FF0A08E1CB
:10071C006F51000A05E16E51000A02E16D51000AA9
:10072C000CE169C073F06AC074F03A0E756F000E7C
:10073C00766F7EDD6BC000F0A7D1000E046E000E4C
:10074C00056E000E066E7F0E076E6DC000F06EC05B
:10075C0001F06FC002F070C003F091DD010ED8B053
:10076C00000E006E00521BE06DC000F06EC001F078
:10077C006FC002F070C003F0000E046E000E056E28
:10078C00200E066E820E076EBDDC00C06DF001C03F
:10079C006EF002C06FF003C070F07207CED7000E7F
:1007AC00046E000E056E200E066E820E076E6DC076
:1007BC0000F06EC001F06FC002F070C003F05FDD9E
:1007CC00000ED8B0010E006E00521BE06DC000F0A0
:1007DC006EC001F06FC002F070C003F0CD0E046E5D
:1007EC00CC0E056E4C0E066E7B0E076E8BDC00C0BD
:1007FC006DF001C06EF002C06FF003C070F0722B90
:10080C00CED7FF0E6D15086EFF0E6E15096E7F0E9E
:10081C006F150A6E000E70150B6E08C004F009C03F
:10082C0005F00AC006F00BC007F00436049005363C
:10083C0006360736000E6D15006E000E6E15016E35
:10084C00000E6F15026EFF0E7015036E00C06DF07A
:10085C0001C06EF002C06FF003C070F004506D1157
:10086C00006E05506E11016E06506F11026E07502E
:10087C007011036E00C06DF001C06EF002C06FF01D
:10088C0003C070F07F0E705D006E00C06CF0010E46
:10089C00706F00C004F06DC000F06EC001F06FC04E
:1008AC0002F070C003F0045007E0003600900136EF
:1008BC0002360336FF0FF8D700C06DF001C06EF0A2
:1008CC0002C06FF003C070F069C0E1FF6AC0E2FFC4
:1008DC007051300FE66E694B6A2B800E7219006EE8
:1008EC00800E010A005C08E3800E060A006E800E82
:1008FC007219005C01E30AD069C0E1FF6AC0E2FF33
:10090C002E0EE66E694B6A2B010E716F060E6C6F24
:10091C006C51000A54E0706B6DC000F06EC001F0B9
:10092C006FC002F070C003F0003600900136023642
:10093C000336003600900136023603366D51002620
:10094C006E5101226F5102227051032200C06DF0D2
:10095C0001C06EF002C06FF003C070F06DC000F00B
:10096C006EC001F06FC002F070C003F00036009052
:10097C0001360236033600C06DF001C06EF002C0C5
:10098C006FF003C070F069C0E1FF6AC0E2FF705104
:10099C00300FE66E694B6A2B7151000A0EE172073B
:1009AC007251000A0AE169C0E1FF6AC0E2FF2E0E33
:1009BC00E66E694B6A2B010E716F6C07A9D7FF0E9F
:1009CC006925E96EFF0E6A21EA6EEE50300A05E1E8
:1009DC00010E695F000E6A5BF2D7FF0E6925E96EA6
:1009EC00FF0E6A21EA6EEE502E0A04E1010E695FD9
:1009FC00000E6A5B7251000A41E069C0E1FF6AC0F7
:100A0C00E2FF650EE66E694B6A2B800E7219006E62
:100A1C00800E000A005C0BE269C0E1FF6AC0E2FFD5
:100A2C002D0EE66E694B6A2B72510008726F72C004
:100A3C006CF0800E090A006E800E7219005C0EE2DA
:100A4C000A0E046E6CC000F081DC69C0E1FF6AC064
:100A5C00E2FF0050300FE66E694B6A2B0A0E046EF3
:100A6C006CC000F073DC08C000F069C0E1FF6AC024
:100A7C00E2FF0050300FE66E694B6A2B69C0E1FF54
:0A0A8C006AC0E2FFE66A006A120089
:100A9600C26A481C006E0050C1160F0EC012C08EEE
:100AA60065C000F000360090003600900050C2127B
:100AB600C280CADCC282C2A201D0FDD7C4CF01F077
:100AC600006A00C066F001C067F0C3500012000E55
:100AD600011200C066F001C067F0C290000E00145B
:100AE600026E0150800B036E000E031802E1000E29
:100AF600021803E00001666B676B66C000F067C012
:040B060001F01200E8
:100B0A000450000A08E10550000A05E1FF0E006ED4
:100B1A007F0E016E57D00D6A096A086A01500010EB
:100B2A00D8B4000C015005180A6E0ABE0D1E0B6AD5
:100B3A0005AE05D0041E051E042AD8B4052A01AE46
:100B4A0005D0001E011E002AD8B4012A0150051042
:100B5A000A6E0ABE10D04ADC0BB020D00DAE000CD3
:100B6A00001E011E002AD8B4012A081E091E082ADE
:100B7A00D8B4092A000C05AE0DD001BE07D0015029
:100B8A00096E0050086E016A006AE8D7016A006AB5
:100B9A00002A000C011E001E0B2ADDD7082AD8B431
:100BAA00092A0450085CD8A4D9D70550095CD8A4EE
:100BBA00D5D7096A086A002AD8B4012A01AECED765
:060BCA000000FF0C120008
:100BD00000C008F00150006E016A026A036A0B6AE5
:100BE0000C6A016A026A036A960E036E0A6A00AE14
:100BF00000EF06F0081E001E082AD8B4002A0A8E4C
:100C000000C001F008C000F0086A026A26DC120089
:100C10000450000A12E10550000A0FE10650000AD4
:100C20000CE10750000A09E1FF0E006EFF0E016E95
:100C30007F0E026EFF0E036EA8D0086A096A075085
:100C4000D8B4B3EF06F00350D8B4B8EF06F00250B2
:100C500006180A6E028E068E0E6A02C008F001C0E7
:100C60000CF000C00DF004500D5E0550D8A0053CFE
:100C70000C5E0650D8A0063C085E086A0C6A0D6A35
:100C8000D8A04AEF06F0D890023201320032083282
:100C9000010E0E6E0750035ED8A057EF06F07E0ED1
:100CA0000E240326D8B0BDEF06F05DEF06F07E0EF1
:100CB0000E240326D8A0C2EF06F0180E0B6E0D36D8
:100CC0000C3608360036013602360E360450005E09
:100CD0000550D8A0053C015E0650D8A0063C025E37
:100CE00006340E120EA078EF06F00D8083EF06F0AA
:100CF000045000260550D8B0053C01260650D8B057
:100D0000062802260D900B2E5FEF06F0A9EF06F0E5
:100D1000D8900036013602360E360450005E05507B
:100D2000D8A0053C015E0650D8A0063C025E063401
:100D30000E10010B0D26D8B00C2AD8B4082AD8A45E
:100D4000A9EF06F008320C320D32032AD8B4BDEFF9
:100D500006F00AAE089E0850026E0C50016E0D504F
:100D6000006EC5EF06F0010E84EC00F0C5EF06F052
:100D7000020E32EC00F0C5EF06F0040E78EC00F045
:0C0D8000C5EF06F0080E21EC00F0120098
:100D8C0097EC07F071DC79EC02F00C0E776F39EC14
:100D9C0000F0010E776F39EC00F0010E656F030E59
:100DAC00666F250E676F000E686FC4EC02F0150EAF
:100DBC000B6E4B0E0C6EBE0E0D6E0D2EFED70C2E4A
:100DCC00FCD70B2EFAD70000010E776F39EC00F030
:100DDC00020E656F030E666F190E676F000E686F5B
:100DEC00C4EC02F0336A140E335C17E20001656B3D
:100DFC004CDE00C031F001C032F000504B260150E7
:100E0C004C220D0E0C6EFB0E0D6E0D2EFED70C2E05
:100E1C00FCD700000000332AE6D7140E046E000E37
:100E2C00056E4BC000F04CC001F069DE00C049F00B
:100E3C0001C04AF04B6A4C6AC5DE000E046E400ECF
:100E4C00056E1C0E066E810E076E88EC00F000C05D
:100E5C004DF001C04EF002C04FF003C050F0000E38
:100E6C00046E000E056E200E066E820E076ECADE34
:100E7C0000C015F001C016F002C017F003C018F046
:100E8C0000C065F001C066F002C067F003C068F0F6
:100E9C00520E0001696F000E6A6F3EEC03F0010EFA
:100EAC00656F010E666F3E0E676F000E686FC4ECC7
:100EBC0002F0010E656F0A0E666F52C067F003EC0C
:100ECC0003F053C073F018EC01F054C073F018EC3D
:100EDC0001F055C073F018EC01F056C073F018EC2B
:0E0EEC0001F0430E736F18EC01F07CD7FFD7B6
:100F2E0010EE15F0340E006E010E016EFA0EF66E16
:0E0F3E000E0EF76E000EF86E32EC03F012008D
:040EFA0000000000F4
:0C0EFE004D696B726F64756E79612100A4
:0C0F0A004D696B726F64756E7961210097
:020F16000000D9
:010F180000D8
:020F19003000A6
:040F1B004E614E00D5
:040F1F00494E4600F1
:0A0F2300536963616B6C696B3D005C
:010F2D000FB4
:020000040030CA
:0D000100231F3CFFBF81FF03C003E003404D
:00000001FF
