:02000000392D98
:10000600103083120313FD00FD0B072800000800C3
:10001600083083120313FC002330FD00FD0B11286A
:06002600FC0B112808008C
:04002C0000000800C8
:100030007B15FB1F22280130F300F201F101F001D2
:08004000FA0DF20CFF3008007C
:1000480083120313D91B2A2886132B288617591BBA
:100058002F28061330280617D91A3428861235286F
:100068008616591A392806123A28061632183E28D2
:1000780006153F280611861516208611D919462817
:1000880086134728861759194B2806134C28061734
:10009800D91850288612512886165918552806123C
:1000A8005628061632185A2806155B280611861592
:1000B80016208611321C62280B20632803200800B2
:0E00C800F201F101F001F801F301003008002F
:0800D600FA1FF21300300800CC
:1000DE00FB14FB1F7928FF30F300F200F100F00053
:0800EE00FA0DF20CFF300800CE
:1000F600193083120313FD00FD0B7F28000000005A
:020106000800EF
:10010800A53083120313FD00FD0B882800000000B2
:020118000800DD
:10011A008312031332105708D9002420321408001E
:10012A00A0017208031DAA287108F2007008F100E4
:10013A00F001A0157208031DAA287108F200F10146
:10014A00A011201672080319B8282008F302031D0B
:10015A00031CBC280310F21BC028F00DF10DF20D90
:10016A00F30BB028BC280130FC006420C3280230FD
:0E017A00FC001820C3280430FC006B20080095
:1001880083120313FA017308031D7A147708031DF9
:10019800FA147A0803191029033A0319DB287A1884
:1001A800D828F61F0E290C29F21F0C290E297208CF
:1001B8008039FA00F21376088039F6137A060319A3
:1001C800E9287A0803190C290E29770873020319FC
:1001D800F028031C04290829760872020319F72855
:1001E800031C04290829750871020319FE28031C39
:1001F800042908297408700203191029031808290A
:10020800FA0803190E290C29FA0803190C290E29D2
:10021800031408000310080003140315080008005D
:0E0228008312031331088A0030088200080098
:1002360083120313FD01F8017008031900347406D4
:10024600FA00FA1BFD09FB01F41F2B29F409F40A35
:10025600F01F2F29F009F00A70087404FA00FA1B3F
:1002660053297408F802F00D700DF80D7408F8079C
:10027600F00D0630FC00700DF80D74087018F802C9
:10028600701CF807F00DFC0B3E29701CF8077B1854
:100296006129FD1F0034F009F00AF809F80A003454
:1002A600F41F5E29F01B5B297008F800F0014C2949
:1002B600F001F00A0034F009FB0A3429F80A740840
:1002C6007802031D4C29F801F00AF01F4C29FF346F
:0202D60008001E
:1002D80083120313FB017308031D77080319C3294D
:1002E80072087606FA007708F3077E30031C802927
:1002F800F3020318C6298329F302031CC9297208CB
:10030800F8007108FC007008FD00F817F6170310D4
:10031800F201F101F0011830A0007D1C9D2974083C
:10032800F00775080318750FF10776080318760F9C
:10033800F207F20CF10CF00CF80CFC0CFD0C03109D
:10034800A00B9129F21BAD29F80DF00DF10DF20D5E
:10035800F3037B1B701CBF29F81FBF29F00A031980
:10036800F10A0319F20A031DBF29F20CF10CF00C73
:10037800F30A0319C629FA1FF2130030CB290130FA
:100388006420CB2902306F20CB29043018200000CC
:0203980008005B
:10039A00831203135708F2007208F100F20A580890
:1003AA00F000D80A700884000008F0007108840080
:1003BA00700880007108840000080319E529D12912
:0603CA005708F0000800D6
:1003D000831203137008F8007108F000F101F201B4
:1003E000F301FB01FC019630F300FA01F01FFE2936
:1003F000F809F009F80A0319F00AFA177008F10071
:0C0400007808F000F801F20195200800D7
:10040C0083120313D501D6014A08D1004B08D20040
:10041C004C08D3004D08D4005408FF3A031D202A81
:10042C005308FF3A031D202A5208FF3A031D202AC5
:10043C005108FF3A031D2A2A4E08D7002130D80054
:10044C00CD210330F000032C0130CF00D31F392A0B
:10045C0080305306F0007008D300CF0A4E08840099
:10046C002D308000CE0A0030F0005406031D482ABF
:10047C0070085306031D482A70085206031D482AAB
:10048C005108003A031D512A4E08D7002A30D800D3
:10049C00CD21F001032C5408FF3A031D5F2A5308A9
:1004AC00003A031D5F2A5208003A031D5F2A5108C7
:1004BC00003A031D692A4E08D7002C30D800CD21F4
:1004CC004F08F000032C0030F4000030F500003031
:1004DC00F6007F30F7005108F0005208F100530885
:1004EC00F2005408F300C420013003180030F0006F
:1004FC00700803199C2A5108F0005208F1005308A7
:10050C00F2005408F3000030F4000030F500203005
:10051C00F6008230F7006C217008D1007108D2000F
:10052C007208D3007308D400D603692A0030F40093
:10053C000030F5002030F6008230F7005108F00052
:10054C005208F1005308F2005408F300C4200130A3
:10055C00031C0030F00070080319CF2A5108F0007A
:10056C005208F1005308F2005408F300CD30F400A7
:10057C00CC30F5004C30F6007B30F7006C21700865
:10058C00D1007108D2007208D3007308D400D60AC7
:10059C009C2AFF305105F800FF305205F9007F30DE
:1005AC005305FA0000305405FB007808F400790874
:1005BC00F5007A08F6007B08F700F40DF50DF60D42
:1005CC00F70D741000305105F00000305205F100A9
:1005DC0000305305F200FF305405F3007008D100D1
:1005EC007108D2007208D3007308D4007408510447
:1005FC00F00075085204F10076085304F2007708F5
:10060C005404F3007008D1007108D2007208D300B2
:10061C007308D4007F305402F0007008D000013011
:10062C00D4007008F4005108F0005208F10053088F
:10063C00F2005408F300740803192B2BF00DF10D84
:10064C00F20DF30D7010FF3E222B7008D1007108D3
:10065C00D2007208D3007308D4005408303EF00066
:10066C004E08840070088000CE0A80305606F000D8
:10067C008030013A7002031C4C2B8030063AF0009B
:10068C00803056067002031C4C2B532B4E088400F2
:10069C002E308000CE0A0130D5000630D000500834
:1006AC00003A0319B12BD4015108F0005208F100A3
:1006BC005308F2005408F300F00DF10DF20DF30D98
:1006CC007010F00DF10DF20DF30D70105108F007D4
:1006DC0052080318520FF10753080318530FF2076F
:1006EC0054080318540FF3077008D1007108D20096
:1006FC007208D3007308D4005108F0005208F100BE
:10070C005308F2005408F300F00DF10DF20DF30D47
:10071C0070107008D1007108D2007208D3007308F1
:10072C00D4005408303EF0004E088400700880005D
:10073C00CE0A5508003A031DAF2BD6035608003AD3
:10074C00031DAF2B4E0884002E308000CE0A0130E2
:10075C00D500D003552BFF304E0784000008303AEB
:10076C00031DBA2BCE03B12BFF304E0784000008BB
:10077C002E3A031DC22BCE035608003A0319FF2B49
:10078C004E08840065308000CE0A80305606F0009A
:10079C008030003A70020318DB2B4E0884002D3099
:1007AC008000CE0A5608003CD6005608D000803097
:1007BC00093AF0008030560670020318F12B0A300B
:1007CC00F4005008F0001B213030F0074E08840074
:1007DC0070088000CE0A0A30F4005008F0001B218B
:1007EC007808F0003030F0074E0884007008800064
:0C07FC00CE0A4E0884008001F0010800C5
:10080800831203134B08F1000130F000710803193B
:10081800112CF00D7010FF3E0B2C7008CF007009E2
:10082800CE004A088400CD01CC014C08073C031CCB
:100838003D2C4E08800584174E08800516204F0869
:100848008004162084134F080005F0000319392C82
:100858004C08F1000130F00071080319372CF00D35
:100868007010FF3E312C7008CD0403200320CC0A01
:08087800192C4D08F0000800E6
:10088000831203134B08F1000130F00071080319C3
:100890004D2CF00D7010FF3E472C7008CF00F00972
:1008A0007008CE004A088400700880058417CD01C6
:1008B0004D08073C031C722C4D08F0004C08F10059
:1008C00070080319672CF10CF113FF3E612C4E08E0
:1008D0008005711C6D2C4F0880047B204F0880041C
:0C08E000CD0A582C8413032003200800CC
:1008EC0014218A110A128000840AB00A0319B10A71
:0808FC00F003031D762C080037
:10090400831203134B08F1000130F000710803193E
:100914008F2CF00D7010FF3E892C7008CD00F0096B
:100924004A088400700880058417700880058420B4
:100934004D08800484137B204D080005CC004C082E
:10094400003A013003190030CC0084204C08F00038
:02095400080099
:10095600BD2C803083120313CA00D02CC030CA00CD
:10096600D02C9430CA00D02CD430CA00D02C803081
:10097600CA00D02C831203134A08013A0319AC2C7F
:100986004A08023A0319B12C4A08033A0319B42C4F
:100996004A08043A0319B72CBA2C4B03F0004A084C
:1009A600F0077008CA007008D90024203210CD0163
:1009B6004D084C07840000080319E92C4D084C0724
:1009C60084000008D7008D20CD0ADB2C32140800E5
:1009D6008316031386110611061286120613861352
:1009E60083128611061186130613861206120B2031
:1009F6000B200B20861606168615162086110B2050
:100A06008615162086110B208615162086110B20BA
:100A160006128615162086110B20861516208611BD
:100A2600861286178615162086110B208613061643
:100A360086151620861106128615162086110B209D
:100A460086151620861106168615162086110B2089
:100A5600061286151620861186170617861606169E
:0C0A66008615162086110B2032140800A3
:100A7200D8250730831603139C0086018312860152
:100A8200EB240C30D90024200130D9002420053079
:100A9200CA00CB0182240530CA00CB01CC30CC0085
:100AA20040240530CA00CB014430CC00402404303D
:100AB200FB00CF30FC000130FD00FD0B5E2DFC0B76
:100AC2005E2DFB0B5E2D000000000530CA00CB013D
:100AD20082240530CA00CB01CC30CC004024053042
:100AE200CA00CB01BE30CC0040240530CA00CB0185
:100AF20004247008B300B4010530CA00CB010424F9
:100B02007008B500B6013508F100F0013308F007AE
:100B120034080318013EF107E8210030F4000030E8
:100B2200F5000030F6007B30F7006C217008C6003B
:100B32007108C7007208C8007308C9007008CA00AB
:100B42007108CB007208CC007308CD003730CE009C
:100B520006220130D90024200130CA000130CB0026
:100B62002530CC00AB240130CA000530CB00373031
:100B7200CC00AB24DF30D7008D204330D7008D204E
:040B8200482DC22D0B
:100BB000213084000F3083120313F000C830B000DE
:080BC0000530B10076240800A5
:080B90004E3461344E34003490
:0A0B98004934533449343D3400342D
:040BA20030340034B7
:080BA60049344E34463400349A
:02400E004A2F37
:00000001FF
